{
  "contractName": "nftWithRoyalties",
  "abi": [
    {
      "inputs": [],
      "stateMutability": "nonpayable",
      "type": "constructor"
    },
    {
      "anonymous": false,
      "inputs": [
        {
          "indexed": true,
          "internalType": "address",
          "name": "owner",
          "type": "address"
        },
        {
          "indexed": true,
          "internalType": "address",
          "name": "approved",
          "type": "address"
        },
        {
          "indexed": true,
          "internalType": "uint256",
          "name": "tokenId",
          "type": "uint256"
        }
      ],
      "name": "Approval",
      "type": "event"
    },
    {
      "anonymous": false,
      "inputs": [
        {
          "indexed": true,
          "internalType": "address",
          "name": "owner",
          "type": "address"
        },
        {
          "indexed": true,
          "internalType": "address",
          "name": "operator",
          "type": "address"
        },
        {
          "indexed": false,
          "internalType": "bool",
          "name": "approved",
          "type": "bool"
        }
      ],
      "name": "ApprovalForAll",
      "type": "event"
    },
    {
      "anonymous": false,
      "inputs": [
        {
          "indexed": true,
          "internalType": "address",
          "name": "previousOwner",
          "type": "address"
        },
        {
          "indexed": true,
          "internalType": "address",
          "name": "newOwner",
          "type": "address"
        }
      ],
      "name": "OwnershipTransferred",
      "type": "event"
    },
    {
      "anonymous": false,
      "inputs": [
        {
          "indexed": true,
          "internalType": "bytes32",
          "name": "role",
          "type": "bytes32"
        },
        {
          "indexed": true,
          "internalType": "bytes32",
          "name": "previousAdminRole",
          "type": "bytes32"
        },
        {
          "indexed": true,
          "internalType": "bytes32",
          "name": "newAdminRole",
          "type": "bytes32"
        }
      ],
      "name": "RoleAdminChanged",
      "type": "event"
    },
    {
      "anonymous": false,
      "inputs": [
        {
          "indexed": true,
          "internalType": "bytes32",
          "name": "role",
          "type": "bytes32"
        },
        {
          "indexed": true,
          "internalType": "address",
          "name": "account",
          "type": "address"
        },
        {
          "indexed": true,
          "internalType": "address",
          "name": "sender",
          "type": "address"
        }
      ],
      "name": "RoleGranted",
      "type": "event"
    },
    {
      "anonymous": false,
      "inputs": [
        {
          "indexed": true,
          "internalType": "bytes32",
          "name": "role",
          "type": "bytes32"
        },
        {
          "indexed": true,
          "internalType": "address",
          "name": "account",
          "type": "address"
        },
        {
          "indexed": true,
          "internalType": "address",
          "name": "sender",
          "type": "address"
        }
      ],
      "name": "RoleRevoked",
      "type": "event"
    },
    {
      "anonymous": false,
      "inputs": [
        {
          "indexed": true,
          "internalType": "address",
          "name": "from",
          "type": "address"
        },
        {
          "indexed": true,
          "internalType": "address",
          "name": "to",
          "type": "address"
        },
        {
          "indexed": true,
          "internalType": "uint256",
          "name": "tokenId",
          "type": "uint256"
        }
      ],
      "name": "Transfer",
      "type": "event"
    },
    {
      "inputs": [],
      "name": "DEFAULT_ADMIN_ROLE",
      "outputs": [
        {
          "internalType": "bytes32",
          "name": "",
          "type": "bytes32"
        }
      ],
      "stateMutability": "view",
      "type": "function"
    },
    {
      "inputs": [],
      "name": "MINTER_ROLE",
      "outputs": [
        {
          "internalType": "bytes32",
          "name": "",
          "type": "bytes32"
        }
      ],
      "stateMutability": "view",
      "type": "function"
    },
    {
      "inputs": [
        {
          "internalType": "address",
          "name": "to",
          "type": "address"
        },
        {
          "internalType": "uint256",
          "name": "tokenId",
          "type": "uint256"
        }
      ],
      "name": "approve",
      "outputs": [],
      "stateMutability": "nonpayable",
      "type": "function"
    },
    {
      "inputs": [
        {
          "internalType": "address",
          "name": "owner",
          "type": "address"
        }
      ],
      "name": "balanceOf",
      "outputs": [
        {
          "internalType": "uint256",
          "name": "",
          "type": "uint256"
        }
      ],
      "stateMutability": "view",
      "type": "function"
    },
    {
      "inputs": [],
      "name": "baseExtension",
      "outputs": [
        {
          "internalType": "string",
          "name": "",
          "type": "string"
        }
      ],
      "stateMutability": "view",
      "type": "function"
    },
    {
      "inputs": [],
      "name": "baseURI",
      "outputs": [
        {
          "internalType": "string",
          "name": "",
          "type": "string"
        }
      ],
      "stateMutability": "view",
      "type": "function"
    },
    {
      "inputs": [],
      "name": "category1Cost",
      "outputs": [
        {
          "internalType": "uint256",
          "name": "",
          "type": "uint256"
        }
      ],
      "stateMutability": "view",
      "type": "function"
    },
    {
      "inputs": [],
      "name": "category1Supply",
      "outputs": [
        {
          "internalType": "uint256",
          "name": "",
          "type": "uint256"
        }
      ],
      "stateMutability": "view",
      "type": "function"
    },
    {
      "inputs": [],
      "name": "category2Cost",
      "outputs": [
        {
          "internalType": "uint256",
          "name": "",
          "type": "uint256"
        }
      ],
      "stateMutability": "view",
      "type": "function"
    },
    {
      "inputs": [],
      "name": "category2Supply",
      "outputs": [
        {
          "internalType": "uint256",
          "name": "",
          "type": "uint256"
        }
      ],
      "stateMutability": "view",
      "type": "function"
    },
    {
      "inputs": [
        {
          "internalType": "uint256",
          "name": "tokenId",
          "type": "uint256"
        }
      ],
      "name": "getApproved",
      "outputs": [
        {
          "internalType": "address",
          "name": "",
          "type": "address"
        }
      ],
      "stateMutability": "view",
      "type": "function"
    },
    {
      "inputs": [
        {
          "internalType": "bytes32",
          "name": "role",
          "type": "bytes32"
        }
      ],
      "name": "getRoleAdmin",
      "outputs": [
        {
          "internalType": "bytes32",
          "name": "",
          "type": "bytes32"
        }
      ],
      "stateMutability": "view",
      "type": "function"
    },
    {
      "inputs": [
        {
          "internalType": "bytes32",
          "name": "role",
          "type": "bytes32"
        },
        {
          "internalType": "address",
          "name": "account",
          "type": "address"
        }
      ],
      "name": "grantRole",
      "outputs": [],
      "stateMutability": "nonpayable",
      "type": "function"
    },
    {
      "inputs": [
        {
          "internalType": "bytes32",
          "name": "role",
          "type": "bytes32"
        },
        {
          "internalType": "address",
          "name": "account",
          "type": "address"
        }
      ],
      "name": "hasRole",
      "outputs": [
        {
          "internalType": "bool",
          "name": "",
          "type": "bool"
        }
      ],
      "stateMutability": "view",
      "type": "function"
    },
    {
      "inputs": [
        {
          "internalType": "address",
          "name": "owner",
          "type": "address"
        },
        {
          "internalType": "address",
          "name": "operator",
          "type": "address"
        }
      ],
      "name": "isApprovedForAll",
      "outputs": [
        {
          "internalType": "bool",
          "name": "",
          "type": "bool"
        }
      ],
      "stateMutability": "view",
      "type": "function"
    },
    {
      "inputs": [],
      "name": "maxMintAmount",
      "outputs": [
        {
          "internalType": "uint256",
          "name": "",
          "type": "uint256"
        }
      ],
      "stateMutability": "view",
      "type": "function"
    },
    {
      "inputs": [],
      "name": "maxSupply",
      "outputs": [
        {
          "internalType": "uint256",
          "name": "",
          "type": "uint256"
        }
      ],
      "stateMutability": "view",
      "type": "function"
    },
    {
      "inputs": [],
      "name": "name",
      "outputs": [
        {
          "internalType": "string",
          "name": "",
          "type": "string"
        }
      ],
      "stateMutability": "view",
      "type": "function"
    },
    {
      "inputs": [],
      "name": "owner",
      "outputs": [
        {
          "internalType": "address",
          "name": "",
          "type": "address"
        }
      ],
      "stateMutability": "view",
      "type": "function"
    },
    {
      "inputs": [
        {
          "internalType": "uint256",
          "name": "tokenId",
          "type": "uint256"
        }
      ],
      "name": "ownerOf",
      "outputs": [
        {
          "internalType": "address",
          "name": "",
          "type": "address"
        }
      ],
      "stateMutability": "view",
      "type": "function"
    },
    {
      "inputs": [],
      "name": "premiumCost",
      "outputs": [
        {
          "internalType": "uint256",
          "name": "",
          "type": "uint256"
        }
      ],
      "stateMutability": "view",
      "type": "function"
    },
    {
      "inputs": [],
      "name": "premiumSupply",
      "outputs": [
        {
          "internalType": "uint256",
          "name": "",
          "type": "uint256"
        }
      ],
      "stateMutability": "view",
      "type": "function"
    },
    {
      "inputs": [],
      "name": "renounceOwnership",
      "outputs": [],
      "stateMutability": "nonpayable",
      "type": "function"
    },
    {
      "inputs": [
        {
          "internalType": "bytes32",
          "name": "role",
          "type": "bytes32"
        },
        {
          "internalType": "address",
          "name": "account",
          "type": "address"
        }
      ],
      "name": "renounceRole",
      "outputs": [],
      "stateMutability": "nonpayable",
      "type": "function"
    },
    {
      "inputs": [
        {
          "internalType": "bytes32",
          "name": "role",
          "type": "bytes32"
        },
        {
          "internalType": "address",
          "name": "account",
          "type": "address"
        }
      ],
      "name": "revokeRole",
      "outputs": [],
      "stateMutability": "nonpayable",
      "type": "function"
    },
    {
      "inputs": [
        {
          "internalType": "uint256",
          "name": "tokenId",
          "type": "uint256"
        },
        {
          "internalType": "uint256",
          "name": "value",
          "type": "uint256"
        }
      ],
      "name": "royaltyInfo",
      "outputs": [
        {
          "internalType": "address",
          "name": "receiver",
          "type": "address"
        },
        {
          "internalType": "uint256",
          "name": "royaltyAmount",
          "type": "uint256"
        }
      ],
      "stateMutability": "view",
      "type": "function"
    },
    {
      "inputs": [],
      "name": "royaltyRecipient",
      "outputs": [
        {
          "internalType": "address",
          "name": "",
          "type": "address"
        }
      ],
      "stateMutability": "view",
      "type": "function"
    },
    {
      "inputs": [],
      "name": "royaltyValue",
      "outputs": [
        {
          "internalType": "uint256",
          "name": "",
          "type": "uint256"
        }
      ],
      "stateMutability": "view",
      "type": "function"
    },
    {
      "inputs": [
        {
          "internalType": "address",
          "name": "from",
          "type": "address"
        },
        {
          "internalType": "address",
          "name": "to",
          "type": "address"
        },
        {
          "internalType": "uint256",
          "name": "tokenId",
          "type": "uint256"
        }
      ],
      "name": "safeTransferFrom",
      "outputs": [],
      "stateMutability": "nonpayable",
      "type": "function"
    },
    {
      "inputs": [
        {
          "internalType": "address",
          "name": "from",
          "type": "address"
        },
        {
          "internalType": "address",
          "name": "to",
          "type": "address"
        },
        {
          "internalType": "uint256",
          "name": "tokenId",
          "type": "uint256"
        },
        {
          "internalType": "bytes",
          "name": "_data",
          "type": "bytes"
        }
      ],
      "name": "safeTransferFrom",
      "outputs": [],
      "stateMutability": "nonpayable",
      "type": "function"
    },
    {
      "inputs": [
        {
          "internalType": "address",
          "name": "operator",
          "type": "address"
        },
        {
          "internalType": "bool",
          "name": "approved",
          "type": "bool"
        }
      ],
      "name": "setApprovalForAll",
      "outputs": [],
      "stateMutability": "nonpayable",
      "type": "function"
    },
    {
      "inputs": [],
      "name": "symbol",
      "outputs": [
        {
          "internalType": "string",
          "name": "",
          "type": "string"
        }
      ],
      "stateMutability": "view",
      "type": "function"
    },
    {
      "inputs": [
        {
          "internalType": "uint256",
          "name": "index",
          "type": "uint256"
        }
      ],
      "name": "tokenByIndex",
      "outputs": [
        {
          "internalType": "uint256",
          "name": "",
          "type": "uint256"
        }
      ],
      "stateMutability": "view",
      "type": "function"
    },
    {
      "inputs": [
        {
          "internalType": "address",
          "name": "owner",
          "type": "address"
        },
        {
          "internalType": "uint256",
          "name": "index",
          "type": "uint256"
        }
      ],
      "name": "tokenOfOwnerByIndex",
      "outputs": [
        {
          "internalType": "uint256",
          "name": "",
          "type": "uint256"
        }
      ],
      "stateMutability": "view",
      "type": "function"
    },
    {
      "inputs": [],
      "name": "totalSupply",
      "outputs": [
        {
          "internalType": "uint256",
          "name": "",
          "type": "uint256"
        }
      ],
      "stateMutability": "view",
      "type": "function"
    },
    {
      "inputs": [
        {
          "internalType": "address",
          "name": "from",
          "type": "address"
        },
        {
          "internalType": "address",
          "name": "to",
          "type": "address"
        },
        {
          "internalType": "uint256",
          "name": "tokenId",
          "type": "uint256"
        }
      ],
      "name": "transferFrom",
      "outputs": [],
      "stateMutability": "nonpayable",
      "type": "function"
    },
    {
      "inputs": [
        {
          "internalType": "address",
          "name": "newOwner",
          "type": "address"
        }
      ],
      "name": "transferOwnership",
      "outputs": [],
      "stateMutability": "nonpayable",
      "type": "function"
    },
    {
      "inputs": [],
      "name": "vipCost",
      "outputs": [
        {
          "internalType": "uint256",
          "name": "",
          "type": "uint256"
        }
      ],
      "stateMutability": "view",
      "type": "function"
    },
    {
      "inputs": [],
      "name": "vipSupply",
      "outputs": [
        {
          "internalType": "uint256",
          "name": "",
          "type": "uint256"
        }
      ],
      "stateMutability": "view",
      "type": "function"
    },
    {
      "inputs": [
        {
          "internalType": "address",
          "name": "_account",
          "type": "address"
        }
      ],
      "name": "setRole",
      "outputs": [],
      "stateMutability": "nonpayable",
      "type": "function"
    },
    {
      "inputs": [
        {
          "internalType": "bytes4",
          "name": "interfaceId",
          "type": "bytes4"
        }
      ],
      "name": "supportsInterface",
      "outputs": [
        {
          "internalType": "bool",
          "name": "",
          "type": "bool"
        }
      ],
      "stateMutability": "view",
      "type": "function"
    },
    {
      "inputs": [
        {
          "internalType": "address",
          "name": "caller",
          "type": "address"
        },
        {
          "internalType": "uint256",
          "name": "_mintAmount",
          "type": "uint256"
        },
        {
          "internalType": "uint256[]",
          "name": "mytokenURI",
          "type": "uint256[]"
        },
        {
          "internalType": "uint256",
          "name": "_vipAmount",
          "type": "uint256"
        },
        {
          "internalType": "uint256",
          "name": "_premiumAmount",
          "type": "uint256"
        },
        {
          "internalType": "uint256",
          "name": "_category1Amount",
          "type": "uint256"
        },
        {
          "internalType": "uint256",
          "name": "_category2Amount",
          "type": "uint256"
        },
        {
          "internalType": "bytes",
          "name": "signature",
          "type": "bytes"
        }
      ],
      "name": "redeem",
      "outputs": [],
      "stateMutability": "nonpayable",
      "type": "function"
    },
    {
      "inputs": [
        {
          "internalType": "uint256",
          "name": "tokenId",
          "type": "uint256"
        }
      ],
      "name": "tokenURI",
      "outputs": [
        {
          "internalType": "string",
          "name": "",
          "type": "string"
        }
      ],
      "stateMutability": "view",
      "type": "function"
    },
    {
      "inputs": [
        {
          "internalType": "address",
          "name": "_newRoyaltyRecipient",
          "type": "address"
        }
      ],
      "name": "setRoyaltyRecipient",
      "outputs": [],
      "stateMutability": "nonpayable",
      "type": "function"
    },
    {
      "inputs": [
        {
          "internalType": "uint256",
          "name": "_newRoyaltyValue",
          "type": "uint256"
        }
      ],
      "name": "setRoyaltyValue",
      "outputs": [],
      "stateMutability": "nonpayable",
      "type": "function"
    },
    {
      "inputs": [
        {
          "internalType": "uint256",
          "name": "_newVipCost",
          "type": "uint256"
        }
      ],
      "name": "setVipCost",
      "outputs": [],
      "stateMutability": "nonpayable",
      "type": "function"
    },
    {
      "inputs": [
        {
          "internalType": "uint256",
          "name": "_newPremiumCost",
          "type": "uint256"
        }
      ],
      "name": "setPremiumCost",
      "outputs": [],
      "stateMutability": "nonpayable",
      "type": "function"
    },
    {
      "inputs": [
        {
          "internalType": "uint256",
          "name": "_newCategory1Cost",
          "type": "uint256"
        }
      ],
      "name": "setCategory1Cost",
      "outputs": [],
      "stateMutability": "nonpayable",
      "type": "function"
    },
    {
      "inputs": [
        {
          "internalType": "uint256",
          "name": "_newCategory2Cost",
          "type": "uint256"
        }
      ],
      "name": "setCategory2Cost",
      "outputs": [],
      "stateMutability": "nonpayable",
      "type": "function"
    },
    {
      "inputs": [
        {
          "internalType": "uint256",
          "name": "_newmaxMintAmount",
          "type": "uint256"
        }
      ],
      "name": "setmaxMintAmount",
      "outputs": [],
      "stateMutability": "nonpayable",
      "type": "function"
    },
    {
      "inputs": [
        {
          "internalType": "string",
          "name": "_newBaseURI",
          "type": "string"
        }
      ],
      "name": "setBaseURI",
      "outputs": [],
      "stateMutability": "nonpayable",
      "type": "function"
    },
    {
      "inputs": [
        {
          "internalType": "string",
          "name": "_newBaseExtension",
          "type": "string"
        }
      ],
      "name": "setBaseExtension",
      "outputs": [],
      "stateMutability": "nonpayable",
      "type": "function"
    },
    {
      "inputs": [],
      "name": "withdraw",
      "outputs": [],
      "stateMutability": "payable",
      "type": "function"
    }
  ],
  "bytecode": "0x6080604052612710600e556101f4600f556105dc601055610bb860115561138860125568d8d726b7177a800000601355686c6b935b8bbd400000601455683635c9adc5dea0000060155568056bc75e2d6310000060165560326017556040518060600160405280603681526020016200686e60369139601890805190602001906200008c9291906200044c565b506040518060400160405280600581526020017f2e6a736f6e00000000000000000000000000000000000000000000000000000081525060199080519060200190620000da9291906200044c565b50612710601b55348015620000ee57600080fd5b506040518060400160405280600781526020017f5374616469756d000000000000000000000000000000000000000000000000008152506040518060400160405280600381526020017f53544400000000000000000000000000000000000000000000000000000000008152508160009080519060200190620001739291906200044c565b5080600190805190602001906200018c9291906200044c565b505050620001af620001a36200020b60201b60201c565b6200021360201b60201c565b620001d36000801b620001c76200020b60201b60201c565b620002d960201b60201c565b620002057f9f2df0fed2c77648de5860a4cc508cd0818c85b8b8a1ab4ceeef8d981c8956a633620002d960201b60201c565b62000561565b600033905090565b6000600760009054906101000a900473ffffffffffffffffffffffffffffffffffffffff16905081600760006101000a81548173ffffffffffffffffffffffffffffffffffffffff021916908373ffffffffffffffffffffffffffffffffffffffff1602179055508173ffffffffffffffffffffffffffffffffffffffff168173ffffffffffffffffffffffffffffffffffffffff167f8be0079c531659141344cd1fd0a4f28419497f9722a3daafe3b4186f6b6457e060405160405180910390a35050565b620002eb8282620002ef60201b60201c565b5050565b620003018282620003e160201b60201c565b620003dd576001600d600084815260200190815260200160002060000160008373ffffffffffffffffffffffffffffffffffffffff1673ffffffffffffffffffffffffffffffffffffffff16815260200190815260200160002060006101000a81548160ff021916908315150217905550620003826200020b60201b60201c565b73ffffffffffffffffffffffffffffffffffffffff168173ffffffffffffffffffffffffffffffffffffffff16837f2f8788117e7eff1d82e926ec794901d17c78024a50270940304540a733656f0d60405160405180910390a45b5050565b6000600d600084815260200190815260200160002060000160008373ffffffffffffffffffffffffffffffffffffffff1673ffffffffffffffffffffffffffffffffffffffff16815260200190815260200160002060009054906101000a900460ff16905092915050565b8280546200045a906200052b565b90600052602060002090601f0160209004810192826200047e5760008555620004ca565b82601f106200049957805160ff1916838001178555620004ca565b82800160010185558215620004ca579182015b82811115620004c9578251825591602001919060010190620004ac565b5b509050620004d99190620004dd565b5090565b5b80821115620004f8576000816000905550600101620004de565b5090565b7f4e487b7100000000000000000000000000000000000000000000000000000000600052602260045260246000fd5b600060028204905060018216806200054457607f821691505b602082108114156200055b576200055a620004fc565b5b50919050565b6162fd80620005716000396000f3fe60806040526004361061031a5760003560e01c80636c0360eb116101ab578063b88d4fde116100f7578063d547741f11610095578063da3ef23f1161006f578063da3ef23f14610bb8578063e985e9c514610be1578063f2fde38b14610c1e578063f6e3a1dc14610c475761031a565b8063d547741f14610b3b578063d5abeb0114610b64578063d83880a314610b8f5761031a565b8063c87b56dd116100d1578063c87b56dd14610a7f578063c9ee763e14610abc578063ccbd702014610ae7578063d539139314610b105761031a565b8063b88d4fde14610a00578063c668286214610a29578063c7b2231814610a545761031a565b806391d14854116101645780639b2573ee1161013e5780639b2573ee14610956578063a214deb714610981578063a217fddf146109ac578063a22cb465146109d75761031a565b806391d14854146108c357806391eb160e1461090057806395d89b411461092b5761031a565b80636c0360eb146107c75780636dd10de0146107f257806370a082311461081b578063715018a6146108585780637f00c7a61461086f5780638da5cb5b146108985761031a565b806336568abe1161026a5780635531940e116102235780635d0efc4d116101fd5780635d0efc4d1461070d5780635fc20588146107365780636352211e146107615780636881a0771461079e5761031a565b80635531940e1461069057806355f804b3146106bb5780635791b7c5146106e45761031a565b806336568abe146105a35780633ccfd60b146105cc57806341e42f30146105d657806342842e0e146105ff5780634c00de82146106285780634f6ccce7146106535761031a565b806322911e24116102d7578063248a9ca3116102b1578063248a9ca3146104c25780632a55205a146104ff5780632f2ff15d1461053d5780632f745c59146105665761031a565b806322911e2414610443578063239c70ae1461046e57806323b872dd146104995761031a565b806301ffc9a71461031f57806306fdde031461035c578063081812fc14610387578063095ea7b3146103c45780630f1c5e40146103ed57806318160ddd14610418575b600080fd5b34801561032b57600080fd5b50610346600480360381019061034191906142a3565b610c70565b60405161035391906142eb565b60405180910390f35b34801561036857600080fd5b50610371610c82565b60405161037e919061439f565b60405180910390f35b34801561039357600080fd5b506103ae60048036038101906103a991906143f7565b610d14565b6040516103bb9190614465565b60405180910390f35b3480156103d057600080fd5b506103eb60048036038101906103e691906144ac565b610d99565b005b3480156103f957600080fd5b50610402610eb1565b60405161040f91906144fb565b60405180910390f35b34801561042457600080fd5b5061042d610eb7565b60405161043a91906144fb565b60405180910390f35b34801561044f57600080fd5b50610458610ec4565b60405161046591906144fb565b60405180910390f35b34801561047a57600080fd5b50610483610eca565b60405161049091906144fb565b60405180910390f35b3480156104a557600080fd5b506104c060048036038101906104bb9190614516565b610ed0565b005b3480156104ce57600080fd5b506104e960048036038101906104e4919061459f565b610f30565b6040516104f691906145db565b60405180910390f35b34801561050b57600080fd5b50610526600480360381019061052191906145f6565b610f50565b604051610534929190614636565b60405180910390f35b34801561054957600080fd5b50610564600480360381019061055f919061465f565b611021565b005b34801561057257600080fd5b5061058d600480360381019061058891906144ac565b61104a565b60405161059a91906144fb565b60405180910390f35b3480156105af57600080fd5b506105ca60048036038101906105c5919061465f565b6110ef565b005b6105d4611172565b005b3480156105e257600080fd5b506105fd60048036038101906105f8919061469f565b61126e565b005b34801561060b57600080fd5b5061062660048036038101906106219190614516565b61132e565b005b34801561063457600080fd5b5061063d61134e565b60405161064a9190614465565b60405180910390f35b34801561065f57600080fd5b5061067a600480360381019061067591906143f7565b611374565b60405161068791906144fb565b60405180910390f35b34801561069c57600080fd5b506106a56113e5565b6040516106b291906144fb565b60405180910390f35b3480156106c757600080fd5b506106e260048036038101906106dd9190614801565b6113eb565b005b3480156106f057600080fd5b5061070b600480360381019061070691906143f7565b611481565b005b34801561071957600080fd5b50610734600480360381019061072f919061469f565b61154b565b005b34801561074257600080fd5b5061074b611578565b60405161075891906144fb565b60405180910390f35b34801561076d57600080fd5b50610788600480360381019061078391906143f7565b61157e565b6040516107959190614465565b60405180910390f35b3480156107aa57600080fd5b506107c560048036038101906107c091906143f7565b611630565b005b3480156107d357600080fd5b506107dc6116b6565b6040516107e9919061439f565b60405180910390f35b3480156107fe57600080fd5b50610819600480360381019061081491906143f7565b611744565b005b34801561082757600080fd5b50610842600480360381019061083d919061469f565b61180e565b60405161084f91906144fb565b60405180910390f35b34801561086457600080fd5b5061086d6118c6565b005b34801561087b57600080fd5b50610896600480360381019061089191906143f7565b61194e565b005b3480156108a457600080fd5b506108ad611a17565b6040516108ba9190614465565b60405180910390f35b3480156108cf57600080fd5b506108ea60048036038101906108e5919061465f565b611a41565b6040516108f791906142eb565b60405180910390f35b34801561090c57600080fd5b50610915611aac565b60405161092291906144fb565b60405180910390f35b34801561093757600080fd5b50610940611ab2565b60405161094d919061439f565b60405180910390f35b34801561096257600080fd5b5061096b611b44565b60405161097891906144fb565b60405180910390f35b34801561098d57600080fd5b50610996611b4a565b6040516109a391906144fb565b60405180910390f35b3480156109b857600080fd5b506109c1611b50565b6040516109ce91906145db565b60405180910390f35b3480156109e357600080fd5b506109fe60048036038101906109f99190614876565b611b57565b005b348015610a0c57600080fd5b50610a276004803603810190610a229190614957565b611b6d565b005b348015610a3557600080fd5b50610a3e611bcf565b604051610a4b919061439f565b60405180910390f35b348015610a6057600080fd5b50610a69611c5d565b604051610a7691906144fb565b60405180910390f35b348015610a8b57600080fd5b50610aa66004803603810190610aa191906143f7565b611c63565b604051610ab3919061439f565b60405180910390f35b348015610ac857600080fd5b50610ad1611d17565b604051610ade91906144fb565b60405180910390f35b348015610af357600080fd5b50610b0e6004803603810190610b099190614afd565b611d1d565b005b348015610b1c57600080fd5b50610b25611f67565b604051610b3291906145db565b60405180910390f35b348015610b4757600080fd5b50610b626004803603810190610b5d919061465f565b611f8b565b005b348015610b7057600080fd5b50610b79611fb4565b604051610b8691906144fb565b60405180910390f35b348015610b9b57600080fd5b50610bb66004803603810190610bb191906143f7565b611fba565b005b348015610bc457600080fd5b50610bdf6004803603810190610bda9190614801565b612084565b005b348015610bed57600080fd5b50610c086004803603810190610c039190614bef565b61211a565b604051610c1591906142eb565b60405180910390f35b348015610c2a57600080fd5b50610c456004803603810190610c40919061469f565b6121ae565b005b348015610c5357600080fd5b50610c6e6004803603810190610c6991906143f7565b6122a6565b005b6000610c7b82612370565b9050919050565b606060008054610c9190614c5e565b80601f0160208091040260200160405190810160405280929190818152602001828054610cbd90614c5e565b8015610d0a5780601f10610cdf57610100808354040283529160200191610d0a565b820191906000526020600020905b815481529060010190602001808311610ced57829003601f168201915b5050505050905090565b6000610d1f826123ea565b610d5e576040517f08c379a0000000000000000000000000000000000000000000000000000000008152600401610d5590614d02565b60405180910390fd5b6004600083815260200190815260200160002060009054906101000a900473ffffffffffffffffffffffffffffffffffffffff169050919050565b6000610da48261157e565b90508073ffffffffffffffffffffffffffffffffffffffff168373ffffffffffffffffffffffffffffffffffffffff161415610e15576040517f08c379a0000000000000000000000000000000000000000000000000000000008152600401610e0c90614d94565b60405180910390fd5b8073ffffffffffffffffffffffffffffffffffffffff16610e34612456565b73ffffffffffffffffffffffffffffffffffffffff161480610e635750610e6281610e5d612456565b61211a565b5b610ea2576040517f08c379a0000000000000000000000000000000000000000000000000000000008152600401610e9990614e26565b60405180910390fd5b610eac838361245e565b505050565b60145481565b6000600a80549050905090565b60125481565b60175481565b610ee1610edb612456565b82612517565b610f20576040517f08c379a0000000000000000000000000000000000000000000000000000000008152600401610f1790614eb8565b60405180910390fd5b610f2b8383836125f5565b505050565b6000600d6000838152602001908152602001600020600101549050919050565b6000806000600c60008681526020019081526020016000206040518060400160405290816000820160009054906101000a900473ffffffffffffffffffffffffffffffffffffffff1673ffffffffffffffffffffffffffffffffffffffff1673ffffffffffffffffffffffffffffffffffffffff1681526020016000820160149054906101000a900462ffffff1662ffffff1662ffffff1681525050905080600001519250612710816020015162ffffff168561100d9190614f07565b6110179190614f90565b9150509250929050565b61102a82610f30565b61103b81611036612456565b612851565b61104583836128ee565b505050565b60006110558361180e565b8210611096576040517f08c379a000000000000000000000000000000000000000000000000000000000815260040161108d90615033565b60405180910390fd5b600860008473ffffffffffffffffffffffffffffffffffffffff1673ffffffffffffffffffffffffffffffffffffffff168152602001908152602001600020600083815260200190815260200160002054905092915050565b6110f7612456565b73ffffffffffffffffffffffffffffffffffffffff168173ffffffffffffffffffffffffffffffffffffffff1614611164576040517f08c379a000000000000000000000000000000000000000000000000000000000815260040161115b906150c5565b60405180910390fd5b61116e82826129cf565b5050565b61117a612456565b73ffffffffffffffffffffffffffffffffffffffff16611198611a17565b73ffffffffffffffffffffffffffffffffffffffff16146111ee576040517f08c379a00000000000000000000000000000000000000000000000000000000081526004016111e590615131565b60405180910390fd5b60006111f8611a17565b73ffffffffffffffffffffffffffffffffffffffff164760405161121b90615182565b60006040518083038185875af1925050503d8060008114611258576040519150601f19603f3d011682016040523d82523d6000602084013e61125d565b606091505b505090508061126b57600080fd5b50565b611276612456565b73ffffffffffffffffffffffffffffffffffffffff16611294611a17565b73ffffffffffffffffffffffffffffffffffffffff16146112ea576040517f08c379a00000000000000000000000000000000000000000000000000000000081526004016112e190615131565b60405180910390fd5b80601a60006101000a81548173ffffffffffffffffffffffffffffffffffffffff021916908373ffffffffffffffffffffffffffffffffffffffff16021790555050565b61134983838360405180602001604052806000815250611b6d565b505050565b601a60009054906101000a900473ffffffffffffffffffffffffffffffffffffffff1681565b600061137e610eb7565b82106113bf576040517f08c379a00000000000000000000000000000000000000000000000000000000081526004016113b690615209565b60405180910390fd5b600a82815481106113d3576113d2615229565b5b90600052602060002001549050919050565b60135481565b6113f3612456565b73ffffffffffffffffffffffffffffffffffffffff16611411611a17565b73ffffffffffffffffffffffffffffffffffffffff1614611467576040517f08c379a000000000000000000000000000000000000000000000000000000000815260040161145e90615131565b60405180910390fd5b806018908051906020019061147d929190614194565b5050565b611489612456565b73ffffffffffffffffffffffffffffffffffffffff166114a7611a17565b73ffffffffffffffffffffffffffffffffffffffff16146114fd576040517f08c379a00000000000000000000000000000000000000000000000000000000081526004016114f490615131565b60405180910390fd5b6000811015611541576040517f08c379a0000000000000000000000000000000000000000000000000000000008152600401611538906152ca565b60405180910390fd5b8060148190555050565b6115757f9f2df0fed2c77648de5860a4cc508cd0818c85b8b8a1ab4ceeef8d981c8956a6826128ee565b50565b601b5481565b6000806002600084815260200190815260200160002060009054906101000a900473ffffffffffffffffffffffffffffffffffffffff169050600073ffffffffffffffffffffffffffffffffffffffff168173ffffffffffffffffffffffffffffffffffffffff161415611627576040517f08c379a000000000000000000000000000000000000000000000000000000000815260040161161e9061535c565b60405180910390fd5b80915050919050565b611638612456565b73ffffffffffffffffffffffffffffffffffffffff16611656611a17565b73ffffffffffffffffffffffffffffffffffffffff16146116ac576040517f08c379a00000000000000000000000000000000000000000000000000000000081526004016116a390615131565b60405180910390fd5b80601b8190555050565b601880546116c390614c5e565b80601f01602080910402602001604051908101604052809291908181526020018280546116ef90614c5e565b801561173c5780601f106117115761010080835404028352916020019161173c565b820191906000526020600020905b81548152906001019060200180831161171f57829003601f168201915b505050505081565b61174c612456565b73ffffffffffffffffffffffffffffffffffffffff1661176a611a17565b73ffffffffffffffffffffffffffffffffffffffff16146117c0576040517f08c379a00000000000000000000000000000000000000000000000000000000081526004016117b790615131565b60405180910390fd5b6000811015611804576040517f08c379a00000000000000000000000000000000000000000000000000000000081526004016117fb906152ca565b60405180910390fd5b8060158190555050565b60008073ffffffffffffffffffffffffffffffffffffffff168273ffffffffffffffffffffffffffffffffffffffff16141561187f576040517f08c379a0000000000000000000000000000000000000000000000000000000008152600401611876906153ee565b60405180910390fd5b600360008373ffffffffffffffffffffffffffffffffffffffff1673ffffffffffffffffffffffffffffffffffffffff168152602001908152602001600020549050919050565b6118ce612456565b73ffffffffffffffffffffffffffffffffffffffff166118ec611a17565b73ffffffffffffffffffffffffffffffffffffffff1614611942576040517f08c379a000000000000000000000000000000000000000000000000000000000815260040161193990615131565b60405180910390fd5b61194c6000612ab1565b565b611956612456565b73ffffffffffffffffffffffffffffffffffffffff16611974611a17565b73ffffffffffffffffffffffffffffffffffffffff16146119ca576040517f08c379a00000000000000000000000000000000000000000000000000000000081526004016119c190615131565b60405180910390fd5b60008111611a0d576040517f08c379a0000000000000000000000000000000000000000000000000000000008152600401611a049061545a565b60405180910390fd5b8060178190555050565b6000600760009054906101000a900473ffffffffffffffffffffffffffffffffffffffff16905090565b6000600d600084815260200190815260200160002060000160008373ffffffffffffffffffffffffffffffffffffffff1673ffffffffffffffffffffffffffffffffffffffff16815260200190815260200160002060009054906101000a900460ff16905092915050565b60155481565b606060018054611ac190614c5e565b80601f0160208091040260200160405190810160405280929190818152602001828054611aed90614c5e565b8015611b3a5780601f10611b0f57610100808354040283529160200191611b3a565b820191906000526020600020905b815481529060010190602001808311611b1d57829003601f168201915b5050505050905090565b600f5481565b60115481565b6000801b81565b611b69611b62612456565b8383612b77565b5050565b611b7e611b78612456565b83612517565b611bbd576040517f08c379a0000000000000000000000000000000000000000000000000000000008152600401611bb490614eb8565b60405180910390fd5b611bc984848484612ce4565b50505050565b60198054611bdc90614c5e565b80601f0160208091040260200160405190810160405280929190818152602001828054611c0890614c5e565b8015611c555780601f10611c2a57610100808354040283529160200191611c55565b820191906000526020600020905b815481529060010190602001808311611c3857829003601f168201915b505050505081565b60165481565b6060611c6e826123ea565b611cad576040517f08c379a0000000000000000000000000000000000000000000000000000000008152600401611ca4906154ec565b60405180910390fd5b6000611cb7612d40565b90506000815111611cd75760405180602001604052806000815250611d0f565b80601c60008581526020019081526020016000206019604051602001611cff939291906155dc565b6040516020818303038152906040525b915050919050565b60105481565b611d8f611d458a89600081518110611d3857611d37615229565b5b6020026020010151612dd2565b83838080601f016020809104026020016040519081016040528093929190818152602001838380828437600081840152601f19601f82011690508083019250505050505050612e0d565b611dce576040517f08c379a0000000000000000000000000000000000000000000000000000000008152600401611dc590615659565b60405180910390fd5b6000611dd8610eb7565b905086600f54611de89190615679565b600f8190555085601054611dfc9190615679565b60108190555084601154611e109190615679565b60118190555083601254611e249190615679565b6012819055506000600190505b898111611f5a57611e5d8b8284611e4891906156ad565b60405180602001604052806000815250612e4a565b611ea08183611e6c91906156ad565b611e9b8b600185611e7d9190615679565b81518110611e8e57611e8d615229565b5b6020026020010151612ea5565b613006565b611ecf89600183611eb19190615679565b81518110611ec257611ec1615229565b5b6020026020010151612ea5565b601c60008385611edf91906156ad565b81526020019081526020016000209080519060200190611f00929190614194565b506000601b541115611f4757611f468183611f1b91906156ad565b601a60009054906101000a900473ffffffffffffffffffffffffffffffffffffffff16601b5461307a565b5b8080611f5290615703565b915050611e31565b5050505050505050505050565b7f9f2df0fed2c77648de5860a4cc508cd0818c85b8b8a1ab4ceeef8d981c8956a681565b611f9482610f30565b611fa581611fa0612456565b612851565b611faf83836129cf565b505050565b600e5481565b611fc2612456565b73ffffffffffffffffffffffffffffffffffffffff16611fe0611a17565b73ffffffffffffffffffffffffffffffffffffffff1614612036576040517f08c379a000000000000000000000000000000000000000000000000000000000815260040161202d90615131565b60405180910390fd5b600081101561207a576040517f08c379a0000000000000000000000000000000000000000000000000000000008152600401612071906152ca565b60405180910390fd5b8060168190555050565b61208c612456565b73ffffffffffffffffffffffffffffffffffffffff166120aa611a17565b73ffffffffffffffffffffffffffffffffffffffff1614612100576040517f08c379a00000000000000000000000000000000000000000000000000000000081526004016120f790615131565b60405180910390fd5b8060199080519060200190612116929190614194565b5050565b6000600560008473ffffffffffffffffffffffffffffffffffffffff1673ffffffffffffffffffffffffffffffffffffffff16815260200190815260200160002060008373ffffffffffffffffffffffffffffffffffffffff1673ffffffffffffffffffffffffffffffffffffffff16815260200190815260200160002060009054906101000a900460ff16905092915050565b6121b6612456565b73ffffffffffffffffffffffffffffffffffffffff166121d4611a17565b73ffffffffffffffffffffffffffffffffffffffff161461222a576040517f08c379a000000000000000000000000000000000000000000000000000000000815260040161222190615131565b60405180910390fd5b600073ffffffffffffffffffffffffffffffffffffffff168173ffffffffffffffffffffffffffffffffffffffff16141561229a576040517f08c379a0000000000000000000000000000000000000000000000000000000008152600401612291906157be565b60405180910390fd5b6122a381612ab1565b50565b6122ae612456565b73ffffffffffffffffffffffffffffffffffffffff166122cc611a17565b73ffffffffffffffffffffffffffffffffffffffff1614612322576040517f08c379a000000000000000000000000000000000000000000000000000000000815260040161231990615131565b60405180910390fd5b6000811015612366576040517f08c379a000000000000000000000000000000000000000000000000000000000815260040161235d906152ca565b60405180910390fd5b8060138190555050565b60007f7965db0b000000000000000000000000000000000000000000000000000000007bffffffffffffffffffffffffffffffffffffffffffffffffffffffff1916827bffffffffffffffffffffffffffffffffffffffffffffffffffffffff191614806123e357506123e282613176565b5b9050919050565b60008073ffffffffffffffffffffffffffffffffffffffff166002600084815260200190815260200160002060009054906101000a900473ffffffffffffffffffffffffffffffffffffffff1673ffffffffffffffffffffffffffffffffffffffff1614159050919050565b600033905090565b816004600083815260200190815260200160002060006101000a81548173ffffffffffffffffffffffffffffffffffffffff021916908373ffffffffffffffffffffffffffffffffffffffff160217905550808273ffffffffffffffffffffffffffffffffffffffff166124d18361157e565b73ffffffffffffffffffffffffffffffffffffffff167f8c5be1e5ebec7d5bd14f71427d1e84f3dd0314c0f7b2291e5b200ac8c7c3b92560405160405180910390a45050565b6000612522826123ea565b612561576040517f08c379a000000000000000000000000000000000000000000000000000000000815260040161255890615850565b60405180910390fd5b600061256c8361157e565b90508073ffffffffffffffffffffffffffffffffffffffff168473ffffffffffffffffffffffffffffffffffffffff1614806125db57508373ffffffffffffffffffffffffffffffffffffffff166125c384610d14565b73ffffffffffffffffffffffffffffffffffffffff16145b806125ec57506125eb818561211a565b5b91505092915050565b8273ffffffffffffffffffffffffffffffffffffffff166126158261157e565b73ffffffffffffffffffffffffffffffffffffffff161461266b576040517f08c379a0000000000000000000000000000000000000000000000000000000008152600401612662906158e2565b60405180910390fd5b600073ffffffffffffffffffffffffffffffffffffffff168273ffffffffffffffffffffffffffffffffffffffff1614156126db576040517f08c379a00000000000000000000000000000000000000000000000000000000081526004016126d290615974565b60405180910390fd5b6126e68383836131f0565b6126f160008261245e565b6001600360008573ffffffffffffffffffffffffffffffffffffffff1673ffffffffffffffffffffffffffffffffffffffff16815260200190815260200160002060008282546127419190615679565b925050819055506001600360008473ffffffffffffffffffffffffffffffffffffffff1673ffffffffffffffffffffffffffffffffffffffff168152602001908152602001600020600082825461279891906156ad565b92505081905550816002600083815260200190815260200160002060006101000a81548173ffffffffffffffffffffffffffffffffffffffff021916908373ffffffffffffffffffffffffffffffffffffffff160217905550808273ffffffffffffffffffffffffffffffffffffffff168473ffffffffffffffffffffffffffffffffffffffff167fddf252ad1be2c89b69c2b068fc378daa952ba7f163c4a11628f55a4df523b3ef60405160405180910390a4505050565b61285b8282611a41565b6128ea576128808173ffffffffffffffffffffffffffffffffffffffff166014613200565b61288e8360001c6020613200565b60405160200161289f929190615a2c565b6040516020818303038152906040526040517f08c379a00000000000000000000000000000000000000000000000000000000081526004016128e1919061439f565b60405180910390fd5b5050565b6128f88282611a41565b6129cb576001600d600084815260200190815260200160002060000160008373ffffffffffffffffffffffffffffffffffffffff1673ffffffffffffffffffffffffffffffffffffffff16815260200190815260200160002060006101000a81548160ff021916908315150217905550612970612456565b73ffffffffffffffffffffffffffffffffffffffff168173ffffffffffffffffffffffffffffffffffffffff16837f2f8788117e7eff1d82e926ec794901d17c78024a50270940304540a733656f0d60405160405180910390a45b5050565b6129d98282611a41565b15612aad576000600d600084815260200190815260200160002060000160008373ffffffffffffffffffffffffffffffffffffffff1673ffffffffffffffffffffffffffffffffffffffff16815260200190815260200160002060006101000a81548160ff021916908315150217905550612a52612456565b73ffffffffffffffffffffffffffffffffffffffff168173ffffffffffffffffffffffffffffffffffffffff16837ff6391f5c32d9c69d2a47ea670b442974b53935d1edc7fd64eb21e047a839171b60405160405180910390a45b5050565b6000600760009054906101000a900473ffffffffffffffffffffffffffffffffffffffff16905081600760006101000a81548173ffffffffffffffffffffffffffffffffffffffff021916908373ffffffffffffffffffffffffffffffffffffffff1602179055508173ffffffffffffffffffffffffffffffffffffffff168173ffffffffffffffffffffffffffffffffffffffff167f8be0079c531659141344cd1fd0a4f28419497f9722a3daafe3b4186f6b6457e060405160405180910390a35050565b8173ffffffffffffffffffffffffffffffffffffffff168373ffffffffffffffffffffffffffffffffffffffff161415612be6576040517f08c379a0000000000000000000000000000000000000000000000000000000008152600401612bdd90615ab2565b60405180910390fd5b80600560008573ffffffffffffffffffffffffffffffffffffffff1673ffffffffffffffffffffffffffffffffffffffff16815260200190815260200160002060008473ffffffffffffffffffffffffffffffffffffffff1673ffffffffffffffffffffffffffffffffffffffff16815260200190815260200160002060006101000a81548160ff0219169083151502179055508173ffffffffffffffffffffffffffffffffffffffff168373ffffffffffffffffffffffffffffffffffffffff167f17307eab39ab6107e8899845ad3d59bd9653f200f220920489ca2b5937696c3183604051612cd791906142eb565b60405180910390a3505050565b612cef8484846125f5565b612cfb8484848461343c565b612d3a576040517f08c379a0000000000000000000000000000000000000000000000000000000008152600401612d3190615b44565b60405180910390fd5b50505050565b606060188054612d4f90614c5e565b80601f0160208091040260200160405190810160405280929190818152602001828054612d7b90614c5e565b8015612dc85780601f10612d9d57610100808354040283529160200191612dc8565b820191906000526020600020905b815481529060010190602001808311612dab57829003601f168201915b5050505050905090565b6000612e058284604051602001612dea929190615bcd565b604051602081830303815290604052805190602001206135c4565b905092915050565b6000612e427f9f2df0fed2c77648de5860a4cc508cd0818c85b8b8a1ab4ceeef8d981c8956a6612e3d85856135f4565b611a41565b905092915050565b612e54838361361b565b612e61600084848461343c565b612ea0576040517f08c379a0000000000000000000000000000000000000000000000000000000008152600401612e9790615b44565b60405180910390fd5b505050565b60606000821415612eed576040518060400160405280600181526020017f30000000000000000000000000000000000000000000000000000000000000008152509050613001565b600082905060005b60008214612f1f578080612f0890615703565b915050600a82612f189190614f90565b9150612ef5565b60008167ffffffffffffffff811115612f3b57612f3a6146d6565b5b6040519080825280601f01601f191660200182016040528015612f6d5781602001600182028036833780820191505090505b5090505b60008514612ffa57600182612f869190615679565b9150600a85612f959190615bf9565b6030612fa191906156ad565b60f81b818381518110612fb757612fb6615229565b5b60200101907effffffffffffffffffffffffffffffffffffffffffffffffffffffffffffff1916908160001a905350600a85612ff39190614f90565b9450612f71565b8093505050505b919050565b61300f826123ea565b61304e576040517f08c379a000000000000000000000000000000000000000000000000000000000815260040161304590615c9c565b60405180910390fd5b80600660008481526020019081526020016000209080519060200190613075929190614194565b505050565b6127108111156130bf576040517f08c379a00000000000000000000000000000000000000000000000000000000081526004016130b690615d08565b60405180910390fd5b60405180604001604052808373ffffffffffffffffffffffffffffffffffffffff1681526020018262ffffff16815250600c600085815260200190815260200160002060008201518160000160006101000a81548173ffffffffffffffffffffffffffffffffffffffff021916908373ffffffffffffffffffffffffffffffffffffffff16021790555060208201518160000160146101000a81548162ffffff021916908362ffffff160217905550905050505050565b60007f2a55205a000000000000000000000000000000000000000000000000000000007bffffffffffffffffffffffffffffffffffffffffffffffffffffffff1916827bffffffffffffffffffffffffffffffffffffffffffffffffffffffff191614806131e957506131e8826137e9565b5b9050919050565b6131fb838383613863565b505050565b6060600060028360026132139190614f07565b61321d91906156ad565b67ffffffffffffffff811115613236576132356146d6565b5b6040519080825280601f01601f1916602001820160405280156132685781602001600182028036833780820191505090505b5090507f3000000000000000000000000000000000000000000000000000000000000000816000815181106132a05761329f615229565b5b60200101907effffffffffffffffffffffffffffffffffffffffffffffffffffffffffffff1916908160001a9053507f78000000000000000000000000000000000000000000000000000000000000008160018151811061330457613303615229565b5b60200101907effffffffffffffffffffffffffffffffffffffffffffffffffffffffffffff1916908160001a905350600060018460026133449190614f07565b61334e91906156ad565b90505b60018111156133ee577f3031323334353637383961626364656600000000000000000000000000000000600f8616601081106133905761338f615229565b5b1a60f81b8282815181106133a7576133a6615229565b5b60200101907effffffffffffffffffffffffffffffffffffffffffffffffffffffffffffff1916908160001a905350600485901c9450806133e790615d28565b9050613351565b5060008414613432576040517f08c379a000000000000000000000000000000000000000000000000000000000815260040161342990615d9e565b60405180910390fd5b8091505092915050565b600061345d8473ffffffffffffffffffffffffffffffffffffffff16613977565b156135b7578373ffffffffffffffffffffffffffffffffffffffff1663150b7a02613486612456565b8786866040518563ffffffff1660e01b81526004016134a89493929190615e13565b6020604051808303816000875af19250505080156134e457506040513d601f19601f820116820180604052508101906134e19190615e74565b60015b613567573d8060008114613514576040519150601f19603f3d011682016040523d82523d6000602084013e613519565b606091505b5060008151141561355f576040517f08c379a000000000000000000000000000000000000000000000000000000000815260040161355690615b44565b60405180910390fd5b805181602001fd5b63150b7a0260e01b7bffffffffffffffffffffffffffffffffffffffffffffffffffffffff1916817bffffffffffffffffffffffffffffffffffffffffffffffffffffffff1916149150506135bc565b600190505b949350505050565b6000816040516020016135d79190615f0e565b604051602081830303815290604052805190602001209050919050565b6000806000613603858561398a565b9150915061361081613a0d565b819250505092915050565b600073ffffffffffffffffffffffffffffffffffffffff168273ffffffffffffffffffffffffffffffffffffffff16141561368b576040517f08c379a000000000000000000000000000000000000000000000000000000000815260040161368290615f80565b60405180910390fd5b613694816123ea565b156136d4576040517f08c379a00000000000000000000000000000000000000000000000000000000081526004016136cb90615fec565b60405180910390fd5b6136e0600083836131f0565b6001600360008473ffffffffffffffffffffffffffffffffffffffff1673ffffffffffffffffffffffffffffffffffffffff168152602001908152602001600020600082825461373091906156ad565b92505081905550816002600083815260200190815260200160002060006101000a81548173ffffffffffffffffffffffffffffffffffffffff021916908373ffffffffffffffffffffffffffffffffffffffff160217905550808273ffffffffffffffffffffffffffffffffffffffff16600073ffffffffffffffffffffffffffffffffffffffff167fddf252ad1be2c89b69c2b068fc378daa952ba7f163c4a11628f55a4df523b3ef60405160405180910390a45050565b60007f780e9d63000000000000000000000000000000000000000000000000000000007bffffffffffffffffffffffffffffffffffffffffffffffffffffffff1916827bffffffffffffffffffffffffffffffffffffffffffffffffffffffff1916148061385c575061385b82613be2565b5b9050919050565b61386e838383613cc4565b600073ffffffffffffffffffffffffffffffffffffffff168373ffffffffffffffffffffffffffffffffffffffff1614156138b1576138ac81613cc9565b6138f0565b8173ffffffffffffffffffffffffffffffffffffffff168373ffffffffffffffffffffffffffffffffffffffff16146138ef576138ee8382613d12565b5b5b600073ffffffffffffffffffffffffffffffffffffffff168273ffffffffffffffffffffffffffffffffffffffff1614156139335761392e81613e7f565b613972565b8273ffffffffffffffffffffffffffffffffffffffff168273ffffffffffffffffffffffffffffffffffffffff1614613971576139708282613f50565b5b5b505050565b600080823b905060008111915050919050565b6000806041835114156139cc5760008060006020860151925060408601519150606086015160001a90506139c087828585613fcf565b94509450505050613a06565b6040835114156139fd5760008060208501519150604085015190506139f28683836140dc565b935093505050613a06565b60006002915091505b9250929050565b60006004811115613a2157613a2061600c565b5b816004811115613a3457613a3361600c565b5b1415613a3f57613bdf565b60016004811115613a5357613a5261600c565b5b816004811115613a6657613a6561600c565b5b1415613aa7576040517f08c379a0000000000000000000000000000000000000000000000000000000008152600401613a9e90616087565b60405180910390fd5b60026004811115613abb57613aba61600c565b5b816004811115613ace57613acd61600c565b5b1415613b0f576040517f08c379a0000000000000000000000000000000000000000000000000000000008152600401613b06906160f3565b60405180910390fd5b60036004811115613b2357613b2261600c565b5b816004811115613b3657613b3561600c565b5b1415613b77576040517f08c379a0000000000000000000000000000000000000000000000000000000008152600401613b6e90616185565b60405180910390fd5b600480811115613b8a57613b8961600c565b5b816004811115613b9d57613b9c61600c565b5b1415613bde576040517f08c379a0000000000000000000000000000000000000000000000000000000008152600401613bd590616217565b60405180910390fd5b5b50565b60007f80ac58cd000000000000000000000000000000000000000000000000000000007bffffffffffffffffffffffffffffffffffffffffffffffffffffffff1916827bffffffffffffffffffffffffffffffffffffffffffffffffffffffff19161480613cad57507f5b5e139f000000000000000000000000000000000000000000000000000000007bffffffffffffffffffffffffffffffffffffffffffffffffffffffff1916827bffffffffffffffffffffffffffffffffffffffffffffffffffffffff1916145b80613cbd5750613cbc8261412a565b5b9050919050565b505050565b600a80549050600b600083815260200190815260200160002081905550600a81908060018154018082558091505060019003906000526020600020016000909190919091505550565b60006001613d1f8461180e565b613d299190615679565b9050600060096000848152602001908152602001600020549050818114613e0e576000600860008673ffffffffffffffffffffffffffffffffffffffff1673ffffffffffffffffffffffffffffffffffffffff168152602001908152602001600020600084815260200190815260200160002054905080600860008773ffffffffffffffffffffffffffffffffffffffff1673ffffffffffffffffffffffffffffffffffffffff168152602001908152602001600020600084815260200190815260200160002081905550816009600083815260200190815260200160002081905550505b6009600084815260200190815260200160002060009055600860008573ffffffffffffffffffffffffffffffffffffffff1673ffffffffffffffffffffffffffffffffffffffff16815260200190815260200160002060008381526020019081526020016000206000905550505050565b60006001600a80549050613e939190615679565b90506000600b60008481526020019081526020016000205490506000600a8381548110613ec357613ec2615229565b5b9060005260206000200154905080600a8381548110613ee557613ee4615229565b5b906000526020600020018190555081600b600083815260200190815260200160002081905550600b600085815260200190815260200160002060009055600a805480613f3457613f33616237565b5b6001900381819060005260206000200160009055905550505050565b6000613f5b8361180e565b905081600860008573ffffffffffffffffffffffffffffffffffffffff1673ffffffffffffffffffffffffffffffffffffffff168152602001908152602001600020600083815260200190815260200160002081905550806009600084815260200190815260200160002081905550505050565b6000807f7fffffffffffffffffffffffffffffff5d576e7357a4501ddfe92f46681b20a08360001c111561400a5760006003915091506140d3565b601b8560ff16141580156140225750601c8560ff1614155b156140345760006004915091506140d3565b6000600187878787604051600081526020016040526040516140599493929190616282565b6020604051602081039080840390855afa15801561407b573d6000803e3d6000fd5b505050602060405103519050600073ffffffffffffffffffffffffffffffffffffffff168173ffffffffffffffffffffffffffffffffffffffff1614156140ca576000600192509250506140d3565b80600092509250505b94509492505050565b6000806000807f7fffffffffffffffffffffffffffffffffffffffffffffffffffffffffffffff85169150601b8560ff1c01905061411c87828885613fcf565b935093505050935093915050565b60007f01ffc9a7000000000000000000000000000000000000000000000000000000007bffffffffffffffffffffffffffffffffffffffffffffffffffffffff1916827bffffffffffffffffffffffffffffffffffffffffffffffffffffffff1916149050919050565b8280546141a090614c5e565b90600052602060002090601f0160209004810192826141c25760008555614209565b82601f106141db57805160ff1916838001178555614209565b82800160010185558215614209579182015b828111156142085782518255916020019190600101906141ed565b5b509050614216919061421a565b5090565b5b8082111561423357600081600090555060010161421b565b5090565b6000604051905090565b600080fd5b600080fd5b60007fffffffff0000000000000000000000000000000000000000000000000000000082169050919050565b6142808161424b565b811461428b57600080fd5b50565b60008135905061429d81614277565b92915050565b6000602082840312156142b9576142b8614241565b5b60006142c78482850161428e565b91505092915050565b60008115159050919050565b6142e5816142d0565b82525050565b600060208201905061430060008301846142dc565b92915050565b600081519050919050565b600082825260208201905092915050565b60005b83811015614340578082015181840152602081019050614325565b8381111561434f576000848401525b50505050565b6000601f19601f8301169050919050565b600061437182614306565b61437b8185614311565b935061438b818560208601614322565b61439481614355565b840191505092915050565b600060208201905081810360008301526143b98184614366565b905092915050565b6000819050919050565b6143d4816143c1565b81146143df57600080fd5b50565b6000813590506143f1816143cb565b92915050565b60006020828403121561440d5761440c614241565b5b600061441b848285016143e2565b91505092915050565b600073ffffffffffffffffffffffffffffffffffffffff82169050919050565b600061444f82614424565b9050919050565b61445f81614444565b82525050565b600060208201905061447a6000830184614456565b92915050565b61448981614444565b811461449457600080fd5b50565b6000813590506144a681614480565b92915050565b600080604083850312156144c3576144c2614241565b5b60006144d185828601614497565b92505060206144e2858286016143e2565b9150509250929050565b6144f5816143c1565b82525050565b600060208201905061451060008301846144ec565b92915050565b60008060006060848603121561452f5761452e614241565b5b600061453d86828701614497565b935050602061454e86828701614497565b925050604061455f868287016143e2565b9150509250925092565b6000819050919050565b61457c81614569565b811461458757600080fd5b50565b60008135905061459981614573565b92915050565b6000602082840312156145b5576145b4614241565b5b60006145c38482850161458a565b91505092915050565b6145d581614569565b82525050565b60006020820190506145f060008301846145cc565b92915050565b6000806040838503121561460d5761460c614241565b5b600061461b858286016143e2565b925050602061462c858286016143e2565b9150509250929050565b600060408201905061464b6000830185614456565b61465860208301846144ec565b9392505050565b6000806040838503121561467657614675614241565b5b60006146848582860161458a565b925050602061469585828601614497565b9150509250929050565b6000602082840312156146b5576146b4614241565b5b60006146c384828501614497565b91505092915050565b600080fd5b600080fd5b7f4e487b7100000000000000000000000000000000000000000000000000000000600052604160045260246000fd5b61470e82614355565b810181811067ffffffffffffffff8211171561472d5761472c6146d6565b5b80604052505050565b6000614740614237565b905061474c8282614705565b919050565b600067ffffffffffffffff82111561476c5761476b6146d6565b5b61477582614355565b9050602081019050919050565b82818337600083830152505050565b60006147a461479f84614751565b614736565b9050828152602081018484840111156147c0576147bf6146d1565b5b6147cb848285614782565b509392505050565b600082601f8301126147e8576147e76146cc565b5b81356147f8848260208601614791565b91505092915050565b60006020828403121561481757614816614241565b5b600082013567ffffffffffffffff81111561483557614834614246565b5b614841848285016147d3565b91505092915050565b614853816142d0565b811461485e57600080fd5b50565b6000813590506148708161484a565b92915050565b6000806040838503121561488d5761488c614241565b5b600061489b85828601614497565b92505060206148ac85828601614861565b9150509250929050565b600067ffffffffffffffff8211156148d1576148d06146d6565b5b6148da82614355565b9050602081019050919050565b60006148fa6148f5846148b6565b614736565b905082815260208101848484011115614916576149156146d1565b5b614921848285614782565b509392505050565b600082601f83011261493e5761493d6146cc565b5b813561494e8482602086016148e7565b91505092915050565b6000806000806080858703121561497157614970614241565b5b600061497f87828801614497565b945050602061499087828801614497565b93505060406149a1878288016143e2565b925050606085013567ffffffffffffffff8111156149c2576149c1614246565b5b6149ce87828801614929565b91505092959194509250565b600067ffffffffffffffff8211156149f5576149f46146d6565b5b602082029050602081019050919050565b600080fd5b6000614a1e614a19846149da565b614736565b90508083825260208201905060208402830185811115614a4157614a40614a06565b5b835b81811015614a6a5780614a5688826143e2565b845260208401935050602081019050614a43565b5050509392505050565b600082601f830112614a8957614a886146cc565b5b8135614a99848260208601614a0b565b91505092915050565b600080fd5b60008083601f840112614abd57614abc6146cc565b5b8235905067ffffffffffffffff811115614ada57614ad9614aa2565b5b602083019150836001820283011115614af657614af5614a06565b5b9250929050565b60008060008060008060008060006101008a8c031215614b2057614b1f614241565b5b6000614b2e8c828d01614497565b9950506020614b3f8c828d016143e2565b98505060408a013567ffffffffffffffff811115614b6057614b5f614246565b5b614b6c8c828d01614a74565b9750506060614b7d8c828d016143e2565b9650506080614b8e8c828d016143e2565b95505060a0614b9f8c828d016143e2565b94505060c0614bb08c828d016143e2565b93505060e08a013567ffffffffffffffff811115614bd157614bd0614246565b5b614bdd8c828d01614aa7565b92509250509295985092959850929598565b60008060408385031215614c0657614c05614241565b5b6000614c1485828601614497565b9250506020614c2585828601614497565b9150509250929050565b7f4e487b7100000000000000000000000000000000000000000000000000000000600052602260045260246000fd5b60006002820490506001821680614c7657607f821691505b60208210811415614c8a57614c89614c2f565b5b50919050565b7f4552433732313a20617070726f76656420717565727920666f72206e6f6e657860008201527f697374656e7420746f6b656e0000000000000000000000000000000000000000602082015250565b6000614cec602c83614311565b9150614cf782614c90565b604082019050919050565b60006020820190508181036000830152614d1b81614cdf565b9050919050565b7f4552433732313a20617070726f76616c20746f2063757272656e74206f776e6560008201527f7200000000000000000000000000000000000000000000000000000000000000602082015250565b6000614d7e602183614311565b9150614d8982614d22565b604082019050919050565b60006020820190508181036000830152614dad81614d71565b9050919050565b7f4552433732313a20617070726f76652063616c6c6572206973206e6f74206f7760008201527f6e6572206e6f7220617070726f76656420666f7220616c6c0000000000000000602082015250565b6000614e10603883614311565b9150614e1b82614db4565b604082019050919050565b60006020820190508181036000830152614e3f81614e03565b9050919050565b7f4552433732313a207472616e736665722063616c6c6572206973206e6f74206f60008201527f776e6572206e6f7220617070726f766564000000000000000000000000000000602082015250565b6000614ea2603183614311565b9150614ead82614e46565b604082019050919050565b60006020820190508181036000830152614ed181614e95565b9050919050565b7f4e487b7100000000000000000000000000000000000000000000000000000000600052601160045260246000fd5b6000614f12826143c1565b9150614f1d836143c1565b9250817fffffffffffffffffffffffffffffffffffffffffffffffffffffffffffffffff0483118215151615614f5657614f55614ed8565b5b828202905092915050565b7f4e487b7100000000000000000000000000000000000000000000000000000000600052601260045260246000fd5b6000614f9b826143c1565b9150614fa6836143c1565b925082614fb657614fb5614f61565b5b828204905092915050565b7f455243373231456e756d657261626c653a206f776e657220696e646578206f7560008201527f74206f6620626f756e6473000000000000000000000000000000000000000000602082015250565b600061501d602b83614311565b915061502882614fc1565b604082019050919050565b6000602082019050818103600083015261504c81615010565b9050919050565b7f416363657373436f6e74726f6c3a2063616e206f6e6c792072656e6f756e636560008201527f20726f6c657320666f722073656c660000000000000000000000000000000000602082015250565b60006150af602f83614311565b91506150ba82615053565b604082019050919050565b600060208201905081810360008301526150de816150a2565b9050919050565b7f4f776e61626c653a2063616c6c6572206973206e6f7420746865206f776e6572600082015250565b600061511b602083614311565b9150615126826150e5565b602082019050919050565b6000602082019050818103600083015261514a8161510e565b9050919050565b600081905092915050565b50565b600061516c600083615151565b91506151778261515c565b600082019050919050565b600061518d8261515f565b9150819050919050565b7f455243373231456e756d657261626c653a20676c6f62616c20696e646578206f60008201527f7574206f6620626f756e64730000000000000000000000000000000000000000602082015250565b60006151f3602c83614311565b91506151fe82615197565b604082019050919050565b60006020820190508181036000830152615222816151e6565b9050919050565b7f4e487b7100000000000000000000000000000000000000000000000000000000600052603260045260246000fd5b7f53686f756c642062652067726561746572206f7220657175616c207468616e2060008201527f7a65726f00000000000000000000000000000000000000000000000000000000602082015250565b60006152b4602483614311565b91506152bf82615258565b604082019050919050565b600060208201905081810360008301526152e3816152a7565b9050919050565b7f4552433732313a206f776e657220717565727920666f72206e6f6e657869737460008201527f656e7420746f6b656e0000000000000000000000000000000000000000000000602082015250565b6000615346602983614311565b9150615351826152ea565b604082019050919050565b6000602082019050818103600083015261537581615339565b9050919050565b7f4552433732313a2062616c616e636520717565727920666f7220746865207a6560008201527f726f206164647265737300000000000000000000000000000000000000000000602082015250565b60006153d8602a83614311565b91506153e38261537c565b604082019050919050565b60006020820190508181036000830152615407816153cb565b9050919050565b7f53686f756c642062652067726561746572207468616e207a65726f0000000000600082015250565b6000615444601b83614311565b915061544f8261540e565b602082019050919050565b6000602082019050818103600083015261547381615437565b9050919050565b7f4552433732314d657461646174613a2055524920717565727920666f72206e6f60008201527f6e6578697374656e7420746f6b656e0000000000000000000000000000000000602082015250565b60006154d6602f83614311565b91506154e18261547a565b604082019050919050565b60006020820190508181036000830152615505816154c9565b9050919050565b600081905092915050565b600061552282614306565b61552c818561550c565b935061553c818560208601614322565b80840191505092915050565b60008190508160005260206000209050919050565b6000815461556a81614c5e565b615574818661550c565b9450600182166000811461558f57600181146155a0576155d3565b60ff198316865281860193506155d3565b6155a985615548565b60005b838110156155cb578154818901526001820191506020810190506155ac565b838801955050505b50505092915050565b60006155e88286615517565b91506155f4828561555d565b9150615600828461555d565b9150819050949350505050565b7f496e76616c6964207369676e6174757265000000000000000000000000000000600082015250565b6000615643601183614311565b915061564e8261560d565b602082019050919050565b6000602082019050818103600083015261567281615636565b9050919050565b6000615684826143c1565b915061568f836143c1565b9250828210156156a2576156a1614ed8565b5b828203905092915050565b60006156b8826143c1565b91506156c3836143c1565b9250827fffffffffffffffffffffffffffffffffffffffffffffffffffffffffffffffff038211156156f8576156f7614ed8565b5b828201905092915050565b600061570e826143c1565b91507fffffffffffffffffffffffffffffffffffffffffffffffffffffffffffffffff82141561574157615740614ed8565b5b600182019050919050565b7f4f776e61626c653a206e6577206f776e657220697320746865207a65726f206160008201527f6464726573730000000000000000000000000000000000000000000000000000602082015250565b60006157a8602683614311565b91506157b38261574c565b604082019050919050565b600060208201905081810360008301526157d78161579b565b9050919050565b7f4552433732313a206f70657261746f7220717565727920666f72206e6f6e657860008201527f697374656e7420746f6b656e0000000000000000000000000000000000000000602082015250565b600061583a602c83614311565b9150615845826157de565b604082019050919050565b600060208201905081810360008301526158698161582d565b9050919050565b7f4552433732313a207472616e73666572206f6620746f6b656e2074686174206960008201527f73206e6f74206f776e0000000000000000000000000000000000000000000000602082015250565b60006158cc602983614311565b91506158d782615870565b604082019050919050565b600060208201905081810360008301526158fb816158bf565b9050919050565b7f4552433732313a207472616e7366657220746f20746865207a65726f2061646460008201527f7265737300000000000000000000000000000000000000000000000000000000602082015250565b600061595e602483614311565b915061596982615902565b604082019050919050565b6000602082019050818103600083015261598d81615951565b9050919050565b7f416363657373436f6e74726f6c3a206163636f756e7420000000000000000000600082015250565b60006159ca60178361550c565b91506159d582615994565b601782019050919050565b7f206973206d697373696e6720726f6c6520000000000000000000000000000000600082015250565b6000615a1660118361550c565b9150615a21826159e0565b601182019050919050565b6000615a37826159bd565b9150615a438285615517565b9150615a4e82615a09565b9150615a5a8284615517565b91508190509392505050565b7f4552433732313a20617070726f766520746f2063616c6c657200000000000000600082015250565b6000615a9c601983614311565b9150615aa782615a66565b602082019050919050565b60006020820190508181036000830152615acb81615a8f565b9050919050565b7f4552433732313a207472616e7366657220746f206e6f6e20455243373231526560008201527f63656976657220696d706c656d656e7465720000000000000000000000000000602082015250565b6000615b2e603283614311565b9150615b3982615ad2565b604082019050919050565b60006020820190508181036000830152615b5d81615b21565b9050919050565b6000819050919050565b615b7f615b7a826143c1565b615b64565b82525050565b60008160601b9050919050565b6000615b9d82615b85565b9050919050565b6000615baf82615b92565b9050919050565b615bc7615bc282614444565b615ba4565b82525050565b6000615bd98285615b6e565b602082019150615be98284615bb6565b6014820191508190509392505050565b6000615c04826143c1565b9150615c0f836143c1565b925082615c1f57615c1e614f61565b5b828206905092915050565b7f45524337323155524953746f726167653a2055524920736574206f66206e6f6e60008201527f6578697374656e7420746f6b656e000000000000000000000000000000000000602082015250565b6000615c86602e83614311565b9150615c9182615c2a565b604082019050919050565b60006020820190508181036000830152615cb581615c79565b9050919050565b7f45524332393831526f79616c746965733a20546f6f2068696768000000000000600082015250565b6000615cf2601a83614311565b9150615cfd82615cbc565b602082019050919050565b60006020820190508181036000830152615d2181615ce5565b9050919050565b6000615d33826143c1565b91506000821415615d4757615d46614ed8565b5b600182039050919050565b7f537472696e67733a20686578206c656e67746820696e73756666696369656e74600082015250565b6000615d88602083614311565b9150615d9382615d52565b602082019050919050565b60006020820190508181036000830152615db781615d7b565b9050919050565b600081519050919050565b600082825260208201905092915050565b6000615de582615dbe565b615def8185615dc9565b9350615dff818560208601614322565b615e0881614355565b840191505092915050565b6000608082019050615e286000830187614456565b615e356020830186614456565b615e4260408301856144ec565b8181036060830152615e548184615dda565b905095945050505050565b600081519050615e6e81614277565b92915050565b600060208284031215615e8a57615e89614241565b5b6000615e9884828501615e5f565b91505092915050565b7f19457468657265756d205369676e6564204d6573736167653a0a333200000000600082015250565b6000615ed7601c8361550c565b9150615ee282615ea1565b601c82019050919050565b6000819050919050565b615f08615f0382614569565b615eed565b82525050565b6000615f1982615eca565b9150615f258284615ef7565b60208201915081905092915050565b7f4552433732313a206d696e7420746f20746865207a65726f2061646472657373600082015250565b6000615f6a602083614311565b9150615f7582615f34565b602082019050919050565b60006020820190508181036000830152615f9981615f5d565b9050919050565b7f4552433732313a20746f6b656e20616c7265616479206d696e74656400000000600082015250565b6000615fd6601c83614311565b9150615fe182615fa0565b602082019050919050565b6000602082019050818103600083015261600581615fc9565b9050919050565b7f4e487b7100000000000000000000000000000000000000000000000000000000600052602160045260246000fd5b7f45434453413a20696e76616c6964207369676e61747572650000000000000000600082015250565b6000616071601883614311565b915061607c8261603b565b602082019050919050565b600060208201905081810360008301526160a081616064565b9050919050565b7f45434453413a20696e76616c6964207369676e6174757265206c656e67746800600082015250565b60006160dd601f83614311565b91506160e8826160a7565b602082019050919050565b6000602082019050818103600083015261610c816160d0565b9050919050565b7f45434453413a20696e76616c6964207369676e6174757265202773272076616c60008201527f7565000000000000000000000000000000000000000000000000000000000000602082015250565b600061616f602283614311565b915061617a82616113565b604082019050919050565b6000602082019050818103600083015261619e81616162565b9050919050565b7f45434453413a20696e76616c6964207369676e6174757265202776272076616c60008201527f7565000000000000000000000000000000000000000000000000000000000000602082015250565b6000616201602283614311565b915061620c826161a5565b604082019050919050565b60006020820190508181036000830152616230816161f4565b9050919050565b7f4e487b7100000000000000000000000000000000000000000000000000000000600052603160045260246000fd5b600060ff82169050919050565b61627c81616266565b82525050565b600060808201905061629760008301876145cc565b6162a46020830186616273565b6162b160408301856145cc565b6162be60608301846145cc565b9594505050505056fea2646970667358221220ce00c92eb2613b6166c756caa38e97decd75c1db071ef10459c788f90557a6dc64736f6c634300080a0033697066733a2f2f516d665664506242326665366f4a486f6d484a35544145434266566d6a7677643974356248766f48654a476f7a632f",
  "immutableReferences": {},
  "source": "//SPDX-License-Identifier: MIT\n\npragma solidity ^0.8.2;\n\nimport \"@openzeppelin/contracts/token/ERC721/extensions/ERC721Enumerable.sol\";\nimport \"@openzeppelin/contracts/access/Ownable.sol\";\nimport \"@openzeppelin/contracts/token/ERC721/extensions/ERC721URIStorage.sol\";\nimport \"@openzeppelin/contracts/utils/Counters.sol\";\nimport \"@openzeppelin/contracts/token/ERC721/extensions/IERC721Enumerable.sol\";\n\nimport \"@openzeppelin/contracts/token/ERC20/IERC20.sol\";\nimport \"./ERC2981PerTokenRoyalties.sol\";\n\nimport \"@openzeppelin/contracts/access/AccessControl.sol\";\nimport \"@openzeppelin/contracts/utils/cryptography/ECDSA.sol\";\n\ncontract nftWithRoyalties is\n    ERC721URIStorage,\n    Ownable,\n    ERC721Enumerable,\n    ERC2981PerTokenRoyalties,\n    AccessControl\n{\n    using Strings for uint256;\n    using Counters for Counters.Counter;\n    //Supplies\n    uint256 public maxSupply = 10000;\n    uint256 public vipSupply = 500;\n    uint256 public premiumSupply = 1500;\n    uint256 public category1Supply = 3000;\n    uint256 public category2Supply = 5000;\n    //Costs for Dapp (payment)\n    uint256 public vipCost = 4000 ether;\n    uint256 public premiumCost = 2000 ether;\n    uint256 public category1Cost = 1000 ether;\n    uint256 public category2Cost = 100 ether;\n    uint256 public maxMintAmount = 50;\n    string public baseURI =\n        \"ipfs://QmfVdPbB2fe6oJHomHJ5TAECBfVmjvwd9t5bHvoHeJGozc/\";\n    string public baseExtension = \".json\";\n    //Royaltie Variables\n    address public royaltyRecipient;\n    uint256 public royaltyValue = 10000; // => 10%\n\n    bytes32 public constant MINTER_ROLE = keccak256(\"MINTER_ROLE\");\n\n    constructor() ERC721(\"Stadium\", \"STD\") {\n        _setupRole(DEFAULT_ADMIN_ROLE, _msgSender());\n        _setupRole(MINTER_ROLE, msg.sender);\n    }\n\n    function setRole(address _account) external {\n        _grantRole(MINTER_ROLE, _account);\n    }\n\n    // ROYALTIE FUNCTIONS\n\n    /// @inheritdoc\tERC165\n    function supportsInterface(bytes4 interfaceId)\n        public\n        view\n        virtual\n        override(ERC721, ERC2981Base, ERC721Enumerable, AccessControl)\n        returns (bool)\n    {\n        return super.supportsInterface(interfaceId);\n    }\n\n    mapping(uint256 => string) tokenURIs;\n\n    /// @notice Mint one token to `caller`\n    /// @param caller the recipient of the token\n    function redeem(\n        address caller,\n        uint256 _mintAmount,\n        uint256[] memory mytokenURI,\n        uint256 _vipAmount,\n        uint256 _premiumAmount,\n        uint256 _category1Amount,\n        uint256 _category2Amount,\n        bytes calldata signature\n    ) external {\n        require(\n            _verify(_hash(caller, mytokenURI[0]), signature),\n            \"Invalid signature\"\n        );\n        uint256 supply = totalSupply();\n\n        vipSupply = vipSupply - _vipAmount;\n        premiumSupply = premiumSupply - _premiumAmount;\n        category1Supply = category1Supply - _category1Amount;\n        category2Supply = category2Supply - _category2Amount;\n\n        for (uint256 i = 1; i <= _mintAmount; i++) {\n            _safeMint(caller, (supply + i), \"\");\n            _setTokenURI((supply + i), mytokenURI[i - 1].toString());\n            tokenURIs[supply + i] = mytokenURI[i - 1].toString();\n\n            if (royaltyValue > 0) {\n                _setTokenRoyalty((supply + i), royaltyRecipient, royaltyValue);\n            }\n        }\n    }\n\n    function tokenURI(uint256 tokenId)\n        public\n        view\n        virtual\n        override(ERC721, ERC721URIStorage)\n        returns (string memory)\n    {\n        require(\n            _exists(tokenId),\n            \"ERC721Metadata: URI query for nonexistent token\"\n        );\n\n        string memory currentBaseURI = _baseURI();\n        return\n            bytes(currentBaseURI).length > 0\n                ? string(\n                    abi.encodePacked(\n                        currentBaseURI,\n                        tokenURIs[tokenId],\n                        baseExtension\n                    )\n                )\n                : \"\";\n    }\n\n    // INTERNAL FUNCTIONS:\n\n    function _baseURI() internal view virtual override returns (string memory) {\n        return baseURI;\n    }\n\n    // ONLY OWNER FUNCTIONS:\n\n    function setRoyaltyRecipient(address _newRoyaltyRecipient)\n        public\n        onlyOwner\n    {\n        royaltyRecipient = _newRoyaltyRecipient;\n    }\n\n    function setRoyaltyValue(uint256 _newRoyaltyValue) public onlyOwner {\n        royaltyValue = _newRoyaltyValue;\n    }\n\n    function setVipCost(uint256 _newVipCost) public onlyOwner {\n        require(_newVipCost >= 0, \"Should be greater or equal than zero\");\n        vipCost = _newVipCost;\n    }\n\n    function setPremiumCost(uint256 _newPremiumCost) public onlyOwner {\n        require(_newPremiumCost >= 0, \"Should be greater or equal than zero\");\n        premiumCost = _newPremiumCost;\n    }\n\n    function setCategory1Cost(uint256 _newCategory1Cost) public onlyOwner {\n        require(_newCategory1Cost >= 0, \"Should be greater or equal than zero\");\n        category1Cost = _newCategory1Cost;\n    }\n\n    function setCategory2Cost(uint256 _newCategory2Cost) public onlyOwner {\n        require(_newCategory2Cost >= 0, \"Should be greater or equal than zero\");\n        category2Cost = _newCategory2Cost;\n    }\n\n    function setmaxMintAmount(uint256 _newmaxMintAmount) public onlyOwner {\n        require(_newmaxMintAmount > 0, \"Should be greater than zero\");\n        maxMintAmount = _newmaxMintAmount;\n    }\n\n    function setBaseURI(string memory _newBaseURI) public onlyOwner {\n        baseURI = _newBaseURI;\n    }\n\n    function setBaseExtension(string memory _newBaseExtension)\n        public\n        onlyOwner\n    {\n        baseExtension = _newBaseExtension;\n    }\n\n    function withdraw() public payable onlyOwner {\n        (bool os, ) = payable(owner()).call{value: address(this).balance}(\"\");\n        require(os);\n    }\n\n    // FUNCTIONS are overrides required by Solidity.\n\n    function _beforeTokenTransfer(\n        address from,\n        address to,\n        uint256 tokenId\n    ) internal override(ERC721, ERC721Enumerable) {\n        super._beforeTokenTransfer(from, to, tokenId);\n    }\n\n    function _burn(uint256 tokenId)\n        internal\n        override(ERC721, ERC721URIStorage)\n        onlyOwner\n    {\n        super._burn(tokenId);\n    }\n\n    function _hash(address account, uint256 tokenId)\n        internal\n        pure\n        returns (bytes32)\n    {\n        return\n            ECDSA.toEthSignedMessageHash(\n                keccak256(abi.encodePacked(tokenId, account))\n            );\n    }\n\n    function _verify(bytes32 digest, bytes memory signature)\n        internal\n        view\n        returns (bool)\n    {\n        return hasRole(MINTER_ROLE, ECDSA.recover(digest, signature));\n    }\n}\n",
  "sourcePath": "/home/alejandro/minter-stadium/contracts/nftWithRoyalties.sol",
  "compiler": {
    "name": "solc",
    "version": "0.8.10+commit.fc410830.Emscripten.clang"
  },
  "schemaVersion": "3.4.3",
  "updatedAt": "2021-12-10T23:20:56.137Z",
  "devdoc": {
    "kind": "dev",
    "methods": {
      "approve(address,uint256)": {
        "details": "See {IERC721-approve}."
      },
      "balanceOf(address)": {
        "details": "See {IERC721-balanceOf}."
      },
      "getApproved(uint256)": {
        "details": "See {IERC721-getApproved}."
      },
      "getRoleAdmin(bytes32)": {
        "details": "Returns the admin role that controls `role`. See {grantRole} and {revokeRole}. To change a role's admin, use {_setRoleAdmin}."
      },
      "grantRole(bytes32,address)": {
        "details": "Grants `role` to `account`. If `account` had not been already granted `role`, emits a {RoleGranted} event. Requirements: - the caller must have ``role``'s admin role."
      },
      "hasRole(bytes32,address)": {
        "details": "Returns `true` if `account` has been granted `role`."
      },
      "isApprovedForAll(address,address)": {
        "details": "See {IERC721-isApprovedForAll}."
      },
      "name()": {
        "details": "See {IERC721Metadata-name}."
      },
      "owner()": {
        "details": "Returns the address of the current owner."
      },
      "ownerOf(uint256)": {
        "details": "See {IERC721-ownerOf}."
      },
      "redeem(address,uint256,uint256[],uint256,uint256,uint256,uint256,bytes)": {
        "params": {
          "caller": "the recipient of the token"
        }
      },
      "renounceOwnership()": {
        "details": "Leaves the contract without owner. It will not be possible to call `onlyOwner` functions anymore. Can only be called by the current owner. NOTE: Renouncing ownership will leave the contract without an owner, thereby removing any functionality that is only available to the owner."
      },
      "renounceRole(bytes32,address)": {
        "details": "Revokes `role` from the calling account. Roles are often managed via {grantRole} and {revokeRole}: this function's purpose is to provide a mechanism for accounts to lose their privileges if they are compromised (such as when a trusted device is misplaced). If the calling account had been revoked `role`, emits a {RoleRevoked} event. Requirements: - the caller must be `account`."
      },
      "revokeRole(bytes32,address)": {
        "details": "Revokes `role` from `account`. If `account` had been granted `role`, emits a {RoleRevoked} event. Requirements: - the caller must have ``role``'s admin role."
      },
      "royaltyInfo(uint256,uint256)": {
        "params": {
          "_tokenId": "- the NFT asset queried for royalty information",
          "_value": "- the sale price of the NFT asset specified by _tokenId"
        },
        "returns": {
          "receiver": "- address of who should be sent the royalty payment",
          "royaltyAmount": "- the royalty payment amount for value sale price"
        }
      },
      "safeTransferFrom(address,address,uint256)": {
        "details": "See {IERC721-safeTransferFrom}."
      },
      "safeTransferFrom(address,address,uint256,bytes)": {
        "details": "See {IERC721-safeTransferFrom}."
      },
      "setApprovalForAll(address,bool)": {
        "details": "See {IERC721-setApprovalForAll}."
      },
      "supportsInterface(bytes4)": {
        "details": "See {IERC165-supportsInterface}."
      },
      "symbol()": {
        "details": "See {IERC721Metadata-symbol}."
      },
      "tokenByIndex(uint256)": {
        "details": "See {IERC721Enumerable-tokenByIndex}."
      },
      "tokenOfOwnerByIndex(address,uint256)": {
        "details": "See {IERC721Enumerable-tokenOfOwnerByIndex}."
      },
      "totalSupply()": {
        "details": "See {IERC721Enumerable-totalSupply}."
      },
      "transferFrom(address,address,uint256)": {
        "details": "See {IERC721-transferFrom}."
      },
      "transferOwnership(address)": {
        "details": "Transfers ownership of the contract to a new account (`newOwner`). Can only be called by the current owner."
      }
    },
    "version": 1
  },
  "userdoc": {
    "kind": "user",
    "methods": {
      "redeem(address,uint256,uint256[],uint256,uint256,uint256,uint256,bytes)": {
        "notice": "Mint one token to `caller`"
      }
    },
    "version": 1
  }
}